{
	"contracts/KipuBank.sol": {
		"KipuBank": {
			"abi": [
				{
					"inputs": [
						{
							"internalType": "uint256",
							"name": "_bankCap",
							"type": "uint256"
						}
					],
					"stateMutability": "nonpayable",
					"type": "constructor"
				},
				{
					"inputs": [],
					"name": "AccionNoPermitida",
					"type": "error"
				},
				{
					"inputs": [],
					"name": "FondosInsuficientes",
					"type": "error"
				},
				{
					"inputs": [],
					"name": "LimiteDepositoExcedido",
					"type": "error"
				},
				{
					"inputs": [],
					"name": "LimiteRetiroExcedido",
					"type": "error"
				},
				{
					"inputs": [],
					"name": "TransferenciaFallida",
					"type": "error"
				},
				{
					"inputs": [],
					"name": "ValorCero",
					"type": "error"
				},
				{
					"anonymous": false,
					"inputs": [
						{
							"indexed": true,
							"internalType": "address",
							"name": "user",
							"type": "address"
						},
						{
							"indexed": false,
							"internalType": "uint256",
							"name": "amount",
							"type": "uint256"
						}
					],
					"name": "Deposit",
					"type": "event"
				},
				{
					"anonymous": false,
					"inputs": [
						{
							"indexed": true,
							"internalType": "address",
							"name": "user",
							"type": "address"
						},
						{
							"indexed": false,
							"internalType": "uint256",
							"name": "amount",
							"type": "uint256"
						}
					],
					"name": "Withdraw",
					"type": "event"
				},
				{
					"stateMutability": "payable",
					"type": "fallback"
				},
				{
					"inputs": [],
					"name": "balanceTotal",
					"outputs": [
						{
							"internalType": "uint256",
							"name": "",
							"type": "uint256"
						}
					],
					"stateMutability": "view",
					"type": "function"
				},
				{
					"inputs": [],
					"name": "bankCap",
					"outputs": [
						{
							"internalType": "uint256",
							"name": "",
							"type": "uint256"
						}
					],
					"stateMutability": "view",
					"type": "function"
				},
				{
					"inputs": [],
					"name": "deposit",
					"outputs": [],
					"stateMutability": "payable",
					"type": "function"
				},
				{
					"inputs": [],
					"name": "depositosTotales",
					"outputs": [
						{
							"internalType": "uint256",
							"name": "",
							"type": "uint256"
						}
					],
					"stateMutability": "view",
					"type": "function"
				},
				{
					"inputs": [
						{
							"internalType": "address",
							"name": "user",
							"type": "address"
						}
					],
					"name": "getBalance",
					"outputs": [
						{
							"internalType": "uint256",
							"name": "",
							"type": "uint256"
						}
					],
					"stateMutability": "view",
					"type": "function"
				},
				{
					"inputs": [],
					"name": "limitWithdrawal",
					"outputs": [
						{
							"internalType": "uint256",
							"name": "",
							"type": "uint256"
						}
					],
					"stateMutability": "view",
					"type": "function"
				},
				{
					"inputs": [],
					"name": "retirosTotales",
					"outputs": [
						{
							"internalType": "uint256",
							"name": "",
							"type": "uint256"
						}
					],
					"stateMutability": "view",
					"type": "function"
				},
				{
					"inputs": [
						{
							"internalType": "uint256",
							"name": "amount",
							"type": "uint256"
						}
					],
					"name": "withdraw",
					"outputs": [],
					"stateMutability": "nonpayable",
					"type": "function"
				},
				{
					"stateMutability": "payable",
					"type": "receive"
				}
			],
			"devdoc": {
				"kind": "dev",
				"methods": {
					"getBalance(address)": {
						"params": {
							"user": "Direccion del usuario"
						}
					},
					"withdraw(uint256)": {
						"params": {
							"amount": "Cantidad a retirar"
						}
					}
				},
				"version": 1
			},
			"evm": {
				"assembly": "    /* \"contracts/KipuBank.sol\":63:3859  contract KipuBank {... */\n  mstore(0x40, 0xc0)\n    /* \"contracts/KipuBank.sol\":209:216  5 ether */\n  0x4563918244f40000\n    /* \"contracts/KipuBank.sol\":166:216  uint256 public immutable limitWithdrawal = 5 ether */\n  0x80\n  swap1\n  dup2\n  mstore\n  pop\n    /* \"contracts/KipuBank.sol\":826:893  constructor(uint256 _bankCap) {... */\n  callvalue\n  dup1\n  iszero\n  tag_1\n  jumpi\n  revert(0x00, 0x00)\ntag_1:\n  pop\n  mload(0x40)\n  sub(codesize, bytecodeSize)\n  dup1\n  bytecodeSize\n  dup4\n  codecopy\n  dup2\n  dup2\n  add\n  0x40\n  mstore\n  dup2\n  add\n  swap1\n  tag_2\n  swap2\n  swap1\n  tag_3\n  jump\t// in\ntag_2:\n    /* \"contracts/KipuBank.sol\":877:885  _bankCap */\n  dup1\n    /* \"contracts/KipuBank.sol\":867:885  bankCap = _bankCap */\n  0xa0\n  dup2\n  dup2\n  mstore\n  pop\n  pop\n    /* \"contracts/KipuBank.sol\":826:893  constructor(uint256 _bankCap) {... */\n  pop\n    /* \"contracts/KipuBank.sol\":63:3859  contract KipuBank {... */\n  jump(tag_6)\n    /* \"#utility.yul\":88:205   */\ntag_8:\n    /* \"#utility.yul\":197:198   */\n  0x00\n    /* \"#utility.yul\":194:195   */\n  0x00\n    /* \"#utility.yul\":187:199   */\n  revert\n    /* \"#utility.yul\":334:411   */\ntag_10:\n    /* \"#utility.yul\":371:378   */\n  0x00\n    /* \"#utility.yul\":400:405   */\n  dup2\n    /* \"#utility.yul\":389:405   */\n  swap1\n  pop\n    /* \"#utility.yul\":334:411   */\n  swap2\n  swap1\n  pop\n  jump\t// out\n    /* \"#utility.yul\":417:539   */\ntag_11:\n    /* \"#utility.yul\":490:514   */\n  tag_19\n    /* \"#utility.yul\":508:513   */\n  dup2\n    /* \"#utility.yul\":490:514   */\n  tag_10\n  jump\t// in\ntag_19:\n    /* \"#utility.yul\":483:488   */\n  dup2\n    /* \"#utility.yul\":480:515   */\n  eq\n    /* \"#utility.yul\":470:533   */\n  tag_20\n  jumpi\n    /* \"#utility.yul\":529:530   */\n  0x00\n    /* \"#utility.yul\":526:527   */\n  0x00\n    /* \"#utility.yul\":519:531   */\n  revert\n    /* \"#utility.yul\":470:533   */\ntag_20:\n    /* \"#utility.yul\":417:539   */\n  pop\n  jump\t// out\n    /* \"#utility.yul\":545:688   */\ntag_12:\n    /* \"#utility.yul\":602:607   */\n  0x00\n    /* \"#utility.yul\":633:639   */\n  dup2\n    /* \"#utility.yul\":627:640   */\n  mload\n    /* \"#utility.yul\":618:640   */\n  swap1\n  pop\n    /* \"#utility.yul\":649:682   */\n  tag_22\n    /* \"#utility.yul\":676:681   */\n  dup2\n    /* \"#utility.yul\":649:682   */\n  tag_11\n  jump\t// in\ntag_22:\n    /* \"#utility.yul\":545:688   */\n  swap3\n  swap2\n  pop\n  pop\n  jump\t// out\n    /* \"#utility.yul\":694:1045   */\ntag_3:\n    /* \"#utility.yul\":764:770   */\n  0x00\n    /* \"#utility.yul\":813:815   */\n  0x20\n    /* \"#utility.yul\":801:810   */\n  dup3\n    /* \"#utility.yul\":792:799   */\n  dup5\n    /* \"#utility.yul\":788:811   */\n  sub\n    /* \"#utility.yul\":784:816   */\n  slt\n    /* \"#utility.yul\":781:900   */\n  iszero\n  tag_24\n  jumpi\n    /* \"#utility.yul\":819:898   */\n  tag_25\n  tag_8\n  jump\t// in\ntag_25:\n    /* \"#utility.yul\":781:900   */\ntag_24:\n    /* \"#utility.yul\":939:940   */\n  0x00\n    /* \"#utility.yul\":964:1028   */\n  tag_26\n    /* \"#utility.yul\":1020:1027   */\n  dup5\n    /* \"#utility.yul\":1011:1017   */\n  dup3\n    /* \"#utility.yul\":1000:1009   */\n  dup6\n    /* \"#utility.yul\":996:1018   */\n  add\n    /* \"#utility.yul\":964:1028   */\n  tag_12\n  jump\t// in\ntag_26:\n    /* \"#utility.yul\":954:1028   */\n  swap2\n  pop\n    /* \"#utility.yul\":910:1038   */\n  pop\n    /* \"#utility.yul\":694:1045   */\n  swap3\n  swap2\n  pop\n  pop\n  jump\t// out\n    /* \"contracts/KipuBank.sol\":63:3859  contract KipuBank {... */\ntag_6:\n  mload(0x80)\n  mload(0xa0)\n  codecopy(0x00, dataOffset(sub_0), dataSize(sub_0))\n  0x00\n  assignImmutable(\"0xe4b1702d9298fee62dfeccc57d322a463ad55ca201256d01f62b45b2e1c21c10\")\n  0x00\n  assignImmutable(\"0xceebf77a833b30520287ddd9478ff51abbdffa30aa90a8d655dba0e8a79ce0c1\")\n  return(0x00, dataSize(sub_0))\nstop\n\nsub_0: assembly {\n        /* \"contracts/KipuBank.sol\":63:3859  contract KipuBank {... */\n      mstore(0x40, 0x80)\n      jumpi(tag_1, lt(calldatasize, 0x04))\n      shr(0xe0, calldataload(0x00))\n      dup1\n      0xc79f0e4c\n      gt\n      tag_11\n      jumpi\n      dup1\n      0xc79f0e4c\n      eq\n      tag_7\n      jumpi\n      dup1\n      0xd0e30db0\n      eq\n      tag_8\n      jumpi\n      dup1\n      0xecbea24d\n      eq\n      tag_9\n      jumpi\n      dup1\n      0xf8b2cb4f\n      eq\n      tag_10\n      jumpi\n      jump(tag_2)\n    tag_11:\n      dup1\n      0x2456a760\n      eq\n      tag_3\n      jumpi\n      dup1\n      0x2e1a7d4d\n      eq\n      tag_4\n      jumpi\n      dup1\n      0x42b8c415\n      eq\n      tag_5\n      jumpi\n      dup1\n      0xacf3c415\n      eq\n      tag_6\n      jumpi\n      jump(tag_2)\n    tag_1:\n      jumpi(tag_2, calldatasize)\n        /* \"contracts/KipuBank.sol\":3746:3765  AccionNoPermitida() */\n      mload(0x40)\n      0x46c79b0600000000000000000000000000000000000000000000000000000000\n      dup2\n      mstore\n      0x04\n      add\n      mload(0x40)\n      dup1\n      swap2\n      sub\n      swap1\n      revert\n        /* \"contracts/KipuBank.sol\":63:3859  contract KipuBank {... */\n    tag_2:\n        /* \"contracts/KipuBank.sol\":3827:3846  AccionNoPermitida() */\n      mload(0x40)\n      0x46c79b0600000000000000000000000000000000000000000000000000000000\n      dup2\n      mstore\n      0x04\n      add\n      mload(0x40)\n      dup1\n      swap2\n      sub\n      swap1\n      revert\n        /* \"contracts/KipuBank.sol\":166:216  uint256 public immutable limitWithdrawal = 5 ether */\n    tag_3:\n      callvalue\n      dup1\n      iszero\n      tag_16\n      jumpi\n      revert(0x00, 0x00)\n    tag_16:\n      pop\n      tag_17\n      tag_18\n      jump\t// in\n    tag_17:\n      mload(0x40)\n      tag_19\n      swap2\n      swap1\n      tag_20\n      jump\t// in\n    tag_19:\n      mload(0x40)\n      dup1\n      swap2\n      sub\n      swap1\n      return\n        /* \"contracts/KipuBank.sol\":2500:3164  function withdraw(uint256 amount) external { ... */\n    tag_4:\n      callvalue\n      dup1\n      iszero\n      tag_21\n      jumpi\n      revert(0x00, 0x00)\n    tag_21:\n      pop\n      tag_22\n      0x04\n      dup1\n      calldatasize\n      sub\n      dup2\n      add\n      swap1\n      tag_23\n      swap2\n      swap1\n      tag_24\n      jump\t// in\n    tag_23:\n      tag_25\n      jump\t// in\n    tag_22:\n      stop\n        /* \"contracts/KipuBank.sol\":518:545  uint256 public balanceTotal */\n    tag_5:\n      callvalue\n      dup1\n      iszero\n      tag_26\n      jumpi\n      revert(0x00, 0x00)\n    tag_26:\n      pop\n      tag_27\n      tag_28\n      jump\t// in\n    tag_27:\n      mload(0x40)\n      tag_29\n      swap2\n      swap1\n      tag_20\n      jump\t// in\n    tag_29:\n      mload(0x40)\n      dup1\n      swap2\n      sub\n      swap1\n      return\n        /* \"contracts/KipuBank.sol\":641:672  uint256 public depositosTotales */\n    tag_6:\n      callvalue\n      dup1\n      iszero\n      tag_30\n      jumpi\n      revert(0x00, 0x00)\n    tag_30:\n      pop\n      tag_31\n      tag_32\n      jump\t// in\n    tag_31:\n      mload(0x40)\n      tag_33\n      swap2\n      swap1\n      tag_20\n      jump\t// in\n    tag_33:\n      mload(0x40)\n      dup1\n      swap2\n      sub\n      swap1\n      return\n        /* \"contracts/KipuBank.sol\":764:793  uint256 public retirosTotales */\n    tag_7:\n      callvalue\n      dup1\n      iszero\n      tag_34\n      jumpi\n      revert(0x00, 0x00)\n    tag_34:\n      pop\n      tag_35\n      tag_36\n      jump\t// in\n    tag_35:\n      mload(0x40)\n      tag_37\n      swap2\n      swap1\n      tag_20\n      jump\t// in\n    tag_37:\n      mload(0x40)\n      dup1\n      swap2\n      sub\n      swap1\n      return\n        /* \"contracts/KipuBank.sol\":2089:2389  function deposit() external payable excedioLimiteDeposito() {... */\n    tag_8:\n      tag_38\n      tag_39\n      jump\t// in\n    tag_38:\n      stop\n        /* \"contracts/KipuBank.sol\":301:333  uint256 public immutable bankCap */\n    tag_9:\n      callvalue\n      dup1\n      iszero\n      tag_40\n      jumpi\n      revert(0x00, 0x00)\n    tag_40:\n      pop\n      tag_41\n      tag_42\n      jump\t// in\n    tag_41:\n      mload(0x40)\n      tag_43\n      swap2\n      swap1\n      tag_20\n      jump\t// in\n    tag_43:\n      mload(0x40)\n      dup1\n      swap2\n      sub\n      swap1\n      return\n        /* \"contracts/KipuBank.sol\":3588:3692  function getBalance(address user) public view returns (uint256) {... */\n    tag_10:\n      callvalue\n      dup1\n      iszero\n      tag_44\n      jumpi\n      revert(0x00, 0x00)\n    tag_44:\n      pop\n      tag_45\n      0x04\n      dup1\n      calldatasize\n      sub\n      dup2\n      add\n      swap1\n      tag_46\n      swap2\n      swap1\n      tag_47\n      jump\t// in\n    tag_46:\n      tag_48\n      jump\t// in\n    tag_45:\n      mload(0x40)\n      tag_49\n      swap2\n      swap1\n      tag_20\n      jump\t// in\n    tag_49:\n      mload(0x40)\n      dup1\n      swap2\n      sub\n      swap1\n      return\n        /* \"contracts/KipuBank.sol\":166:216  uint256 public immutable limitWithdrawal = 5 ether */\n    tag_18:\n      immutable(\"0xceebf77a833b30520287ddd9478ff51abbdffa30aa90a8d655dba0e8a79ce0c1\")\n      dup2\n      jump\t// out\n        /* \"contracts/KipuBank.sol\":2500:3164  function withdraw(uint256 amount) external { ... */\n    tag_25:\n        /* \"contracts/KipuBank.sol\":2569:2570  0 */\n      0x00\n        /* \"contracts/KipuBank.sol\":2559:2565  amount */\n      dup2\n        /* \"contracts/KipuBank.sol\":2559:2570  amount == 0 */\n      sub\n        /* \"contracts/KipuBank.sol\":2555:2617  if (amount == 0) {... */\n      tag_51\n      jumpi\n        /* \"contracts/KipuBank.sol\":2594:2605  ValorCero() */\n      mload(0x40)\n      0xdc74d5a600000000000000000000000000000000000000000000000000000000\n      dup2\n      mstore\n      0x04\n      add\n      mload(0x40)\n      dup1\n      swap2\n      sub\n      swap1\n      revert\n        /* \"contracts/KipuBank.sol\":2555:2617  if (amount == 0) {... */\n    tag_51:\n        /* \"contracts/KipuBank.sol\":2640:2655  limitWithdrawal */\n      immutable(\"0xceebf77a833b30520287ddd9478ff51abbdffa30aa90a8d655dba0e8a79ce0c1\")\n        /* \"contracts/KipuBank.sol\":2631:2637  amount */\n      dup2\n        /* \"contracts/KipuBank.sol\":2631:2655  amount > limitWithdrawal */\n      gt\n        /* \"contracts/KipuBank.sol\":2627:2713  if (amount > limitWithdrawal) {... */\n      iszero\n      tag_52\n      jumpi\n        /* \"contracts/KipuBank.sol\":2679:2701  LimiteRetiroExcedido() */\n      mload(0x40)\n      0xd5ce77cd00000000000000000000000000000000000000000000000000000000\n      dup2\n      mstore\n      0x04\n      add\n      mload(0x40)\n      dup1\n      swap2\n      sub\n      swap1\n      revert\n        /* \"contracts/KipuBank.sol\":2627:2713  if (amount > limitWithdrawal) {... */\n    tag_52:\n        /* \"contracts/KipuBank.sol\":2728:2766  hasSufficientFunds(msg.sender, amount) */\n      tag_53\n        /* \"contracts/KipuBank.sol\":2747:2757  msg.sender */\n      caller\n        /* \"contracts/KipuBank.sol\":2759:2765  amount */\n      dup3\n        /* \"contracts/KipuBank.sol\":2728:2746  hasSufficientFunds */\n      tag_54\n        /* \"contracts/KipuBank.sol\":2728:2766  hasSufficientFunds(msg.sender, amount) */\n      jump\t// in\n    tag_53:\n        /* \"contracts/KipuBank.sol\":2723:2823  if (!hasSufficientFunds(msg.sender, amount)) {... */\n      tag_55\n      jumpi\n        /* \"contracts/KipuBank.sol\":2790:2811  FondosInsuficientes() */\n      mload(0x40)\n      0x9436d74500000000000000000000000000000000000000000000000000000000\n      dup2\n      mstore\n      0x04\n      add\n      mload(0x40)\n      dup1\n      swap2\n      sub\n      swap1\n      revert\n        /* \"contracts/KipuBank.sol\":2723:2823  if (!hasSufficientFunds(msg.sender, amount)) {... */\n    tag_55:\n        /* \"contracts/KipuBank.sol\":2859:2865  amount */\n      dup1\n        /* \"contracts/KipuBank.sol\":2835:2843  balances */\n      0x00\n        /* \"contracts/KipuBank.sol\":2835:2855  balances[msg.sender] */\n      0x00\n        /* \"contracts/KipuBank.sol\":2844:2854  msg.sender */\n      caller\n        /* \"contracts/KipuBank.sol\":2835:2855  balances[msg.sender] */\n      0xffffffffffffffffffffffffffffffffffffffff\n      and\n      0xffffffffffffffffffffffffffffffffffffffff\n      and\n      dup2\n      mstore\n      0x20\n      add\n      swap1\n      dup2\n      mstore\n      0x20\n      add\n      0x00\n      keccak256\n      0x00\n        /* \"contracts/KipuBank.sol\":2835:2865  balances[msg.sender] -= amount */\n      dup3\n      dup3\n      sload\n      tag_56\n      swap2\n      swap1\n      tag_57\n      jump\t// in\n    tag_56:\n      swap3\n      pop\n      pop\n      dup2\n      swap1\n      sstore\n      pop\n        /* \"contracts/KipuBank.sol\":2892:2898  amount */\n      dup1\n        /* \"contracts/KipuBank.sol\":2876:2888  balanceTotal */\n      0x01\n      0x00\n        /* \"contracts/KipuBank.sol\":2876:2898  balanceTotal -= amount */\n      dup3\n      dup3\n      sload\n      tag_58\n      swap2\n      swap1\n      tag_57\n      jump\t// in\n    tag_58:\n      swap3\n      pop\n      pop\n      dup2\n      swap1\n      sstore\n      pop\n        /* \"contracts/KipuBank.sol\":2909:2923  retirosTotales */\n      0x03\n      0x00\n        /* \"contracts/KipuBank.sol\":2909:2925  retirosTotales++ */\n      dup2\n      sload\n      dup1\n      swap3\n      swap2\n      swap1\n      tag_59\n      swap1\n      tag_60\n      jump\t// in\n    tag_59:\n      swap2\n      swap1\n      pop\n      sstore\n      pop\n        /* \"contracts/KipuBank.sol\":2950:2960  msg.sender */\n      caller\n        /* \"contracts/KipuBank.sol\":2941:2969  Withdraw(msg.sender, amount) */\n      0xffffffffffffffffffffffffffffffffffffffff\n      and\n      0x884edad9ce6fa2440d8a54cc123490eb96d2768479d49ff9c7366125a9424364\n        /* \"contracts/KipuBank.sol\":2962:2968  amount */\n      dup3\n        /* \"contracts/KipuBank.sol\":2941:2969  Withdraw(msg.sender, amount) */\n      mload(0x40)\n      tag_61\n      swap2\n      swap1\n      tag_20\n      jump\t// in\n    tag_61:\n      mload(0x40)\n      dup1\n      swap2\n      sub\n      swap1\n      log2\n        /* \"contracts/KipuBank.sol\":2983:3011  bool transferenciaCompletada */\n      0x00\n        /* \"contracts/KipuBank.sol\":3025:3035  msg.sender */\n      caller\n        /* \"contracts/KipuBank.sol\":3017:3041  payable(msg.sender).call */\n      0xffffffffffffffffffffffffffffffffffffffff\n      and\n        /* \"contracts/KipuBank.sol\":3049:3055  amount */\n      dup3\n        /* \"contracts/KipuBank.sol\":3017:3060  payable(msg.sender).call{value: amount}(\"\") */\n      mload(0x40)\n      tag_62\n      swap1\n      tag_63\n      jump\t// in\n    tag_62:\n      0x00\n      mload(0x40)\n      dup1\n      dup4\n      sub\n      dup2\n      dup6\n      dup8\n      gas\n      call\n      swap3\n      pop\n      pop\n      pop\n      returndatasize\n      dup1\n      0x00\n      dup2\n      eq\n      tag_66\n      jumpi\n      mload(0x40)\n      swap2\n      pop\n      and(add(returndatasize, 0x3f), not(0x1f))\n      dup3\n      add\n      0x40\n      mstore\n      returndatasize\n      dup3\n      mstore\n      returndatasize\n      0x00\n      0x20\n      dup5\n      add\n      returndatacopy\n      jump(tag_65)\n    tag_66:\n      0x60\n      swap2\n      pop\n    tag_65:\n      pop\n        /* \"contracts/KipuBank.sol\":2982:3060  (bool transferenciaCompletada, ) = payable(msg.sender).call{value: amount}(\"\") */\n      pop\n      swap1\n      pop\n        /* \"contracts/KipuBank.sol\":3076:3099  transferenciaCompletada */\n      dup1\n        /* \"contracts/KipuBank.sol\":3071:3157  if (!transferenciaCompletada) {... */\n      tag_67\n      jumpi\n        /* \"contracts/KipuBank.sol\":3123:3145  TransferenciaFallida() */\n      mload(0x40)\n      0x8a6c667700000000000000000000000000000000000000000000000000000000\n      dup2\n      mstore\n      0x04\n      add\n      mload(0x40)\n      dup1\n      swap2\n      sub\n      swap1\n      revert\n        /* \"contracts/KipuBank.sol\":3071:3157  if (!transferenciaCompletada) {... */\n    tag_67:\n        /* \"contracts/KipuBank.sol\":2543:3164  { ... */\n      pop\n        /* \"contracts/KipuBank.sol\":2500:3164  function withdraw(uint256 amount) external { ... */\n      pop\n      jump\t// out\n        /* \"contracts/KipuBank.sol\":518:545  uint256 public balanceTotal */\n    tag_28:\n      sload(0x01)\n      dup2\n      jump\t// out\n        /* \"contracts/KipuBank.sol\":641:672  uint256 public depositosTotales */\n    tag_32:\n      sload(0x02)\n      dup2\n      jump\t// out\n        /* \"contracts/KipuBank.sol\":764:793  uint256 public retirosTotales */\n    tag_36:\n      sload(0x03)\n      dup2\n      jump\t// out\n        /* \"contracts/KipuBank.sol\":2089:2389  function deposit() external payable excedioLimiteDeposito() {... */\n    tag_39:\n        /* \"contracts/KipuBank.sol\":1950:1957  bankCap */\n      immutable(\"0xe4b1702d9298fee62dfeccc57d322a463ad55ca201256d01f62b45b2e1c21c10\")\n        /* \"contracts/KipuBank.sol\":1938:1947  msg.value */\n      callvalue\n        /* \"contracts/KipuBank.sol\":1914:1935  address(this).balance */\n      selfbalance\n        /* \"contracts/KipuBank.sol\":1914:1947  address(this).balance + msg.value */\n      tag_69\n      swap2\n      swap1\n      tag_70\n      jump\t// in\n    tag_69:\n        /* \"contracts/KipuBank.sol\":1914:1957  address(this).balance + msg.value > bankCap */\n      gt\n        /* \"contracts/KipuBank.sol\":1910:2017  if (address(this).balance + msg.value > bankCap) {... */\n      iszero\n      tag_71\n      jumpi\n        /* \"contracts/KipuBank.sol\":1981:2005  LimiteDepositoExcedido() */\n      mload(0x40)\n      0x495bdf3a00000000000000000000000000000000000000000000000000000000\n      dup2\n      mstore\n      0x04\n      add\n      mload(0x40)\n      dup1\n      swap2\n      sub\n      swap1\n      revert\n        /* \"contracts/KipuBank.sol\":1910:2017  if (address(this).balance + msg.value > bankCap) {... */\n    tag_71:\n        /* \"contracts/KipuBank.sol\":2179:2180  0 */\n      0x00\n        /* \"contracts/KipuBank.sol\":2166:2175  msg.value */\n      callvalue\n        /* \"contracts/KipuBank.sol\":2166:2180  msg.value == 0 */\n      sub\n        /* \"contracts/KipuBank.sol\":2162:2227  if (msg.value == 0) {... */\n      tag_73\n      jumpi\n        /* \"contracts/KipuBank.sol\":2204:2215  ValorCero() */\n      mload(0x40)\n      0xdc74d5a600000000000000000000000000000000000000000000000000000000\n      dup2\n      mstore\n      0x04\n      add\n      mload(0x40)\n      dup1\n      swap2\n      sub\n      swap1\n      revert\n        /* \"contracts/KipuBank.sol\":2162:2227  if (msg.value == 0) {... */\n    tag_73:\n        /* \"contracts/KipuBank.sol\":2261:2270  msg.value */\n      callvalue\n        /* \"contracts/KipuBank.sol\":2237:2245  balances */\n      0x00\n        /* \"contracts/KipuBank.sol\":2237:2257  balances[msg.sender] */\n      0x00\n        /* \"contracts/KipuBank.sol\":2246:2256  msg.sender */\n      caller\n        /* \"contracts/KipuBank.sol\":2237:2257  balances[msg.sender] */\n      0xffffffffffffffffffffffffffffffffffffffff\n      and\n      0xffffffffffffffffffffffffffffffffffffffff\n      and\n      dup2\n      mstore\n      0x20\n      add\n      swap1\n      dup2\n      mstore\n      0x20\n      add\n      0x00\n      keccak256\n      0x00\n        /* \"contracts/KipuBank.sol\":2237:2270  balances[msg.sender] += msg.value */\n      dup3\n      dup3\n      sload\n      tag_74\n      swap2\n      swap1\n      tag_70\n      jump\t// in\n    tag_74:\n      swap3\n      pop\n      pop\n      dup2\n      swap1\n      sstore\n      pop\n        /* \"contracts/KipuBank.sol\":2297:2306  msg.value */\n      callvalue\n        /* \"contracts/KipuBank.sol\":2281:2293  balanceTotal */\n      0x01\n      0x00\n        /* \"contracts/KipuBank.sol\":2281:2306  balanceTotal += msg.value */\n      dup3\n      dup3\n      sload\n      tag_75\n      swap2\n      swap1\n      tag_70\n      jump\t// in\n    tag_75:\n      swap3\n      pop\n      pop\n      dup2\n      swap1\n      sstore\n      pop\n        /* \"contracts/KipuBank.sol\":2317:2333  depositosTotales */\n      0x02\n      0x00\n        /* \"contracts/KipuBank.sol\":2317:2335  depositosTotales++ */\n      dup2\n      sload\n      dup1\n      swap3\n      swap2\n      swap1\n      tag_76\n      swap1\n      tag_60\n      jump\t// in\n    tag_76:\n      swap2\n      swap1\n      pop\n      sstore\n      pop\n        /* \"contracts/KipuBank.sol\":2359:2369  msg.sender */\n      caller\n        /* \"contracts/KipuBank.sol\":2351:2381  Deposit(msg.sender, msg.value) */\n      0xffffffffffffffffffffffffffffffffffffffff\n      and\n      0xe1fffcc4923d04b559f4d29a8bfc6cda04eb5b0d3c460751c2402c5c5cc9109c\n        /* \"contracts/KipuBank.sol\":2371:2380  msg.value */\n      callvalue\n        /* \"contracts/KipuBank.sol\":2351:2381  Deposit(msg.sender, msg.value) */\n      mload(0x40)\n      tag_77\n      swap2\n      swap1\n      tag_20\n      jump\t// in\n    tag_77:\n      mload(0x40)\n      dup1\n      swap2\n      sub\n      swap1\n      log2\n        /* \"contracts/KipuBank.sol\":2089:2389  function deposit() external payable excedioLimiteDeposito() {... */\n      jump\t// out\n        /* \"contracts/KipuBank.sol\":301:333  uint256 public immutable bankCap */\n    tag_42:\n      immutable(\"0xe4b1702d9298fee62dfeccc57d322a463ad55ca201256d01f62b45b2e1c21c10\")\n      dup2\n      jump\t// out\n        /* \"contracts/KipuBank.sol\":3588:3692  function getBalance(address user) public view returns (uint256) {... */\n    tag_48:\n        /* \"contracts/KipuBank.sol\":3643:3650  uint256 */\n      0x00\n        /* \"contracts/KipuBank.sol\":3670:3678  balances */\n      0x00\n        /* \"contracts/KipuBank.sol\":3670:3684  balances[user] */\n      0x00\n        /* \"contracts/KipuBank.sol\":3679:3683  user */\n      dup4\n        /* \"contracts/KipuBank.sol\":3670:3684  balances[user] */\n      0xffffffffffffffffffffffffffffffffffffffff\n      and\n      0xffffffffffffffffffffffffffffffffffffffff\n      and\n      dup2\n      mstore\n      0x20\n      add\n      swap1\n      dup2\n      mstore\n      0x20\n      add\n      0x00\n      keccak256\n      sload\n        /* \"contracts/KipuBank.sol\":3663:3684  return balances[user] */\n      swap1\n      pop\n        /* \"contracts/KipuBank.sol\":3588:3692  function getBalance(address user) public view returns (uint256) {... */\n      swap2\n      swap1\n      pop\n      jump\t// out\n        /* \"contracts/KipuBank.sol\":3335:3470  function hasSufficientFunds(address user, uint256 amount) private view returns(bool) {... */\n    tag_54:\n        /* \"contracts/KipuBank.sol\":3414:3418  bool */\n      0x00\n        /* \"contracts/KipuBank.sol\":3456:3462  amount */\n      dup2\n        /* \"contracts/KipuBank.sol\":3438:3446  balances */\n      0x00\n        /* \"contracts/KipuBank.sol\":3438:3452  balances[user] */\n      0x00\n        /* \"contracts/KipuBank.sol\":3447:3451  user */\n      dup6\n        /* \"contracts/KipuBank.sol\":3438:3452  balances[user] */\n      0xffffffffffffffffffffffffffffffffffffffff\n      and\n      0xffffffffffffffffffffffffffffffffffffffff\n      and\n      dup2\n      mstore\n      0x20\n      add\n      swap1\n      dup2\n      mstore\n      0x20\n      add\n      0x00\n      keccak256\n      sload\n        /* \"contracts/KipuBank.sol\":3438:3462  balances[user] >= amount */\n      lt\n      iszero\n        /* \"contracts/KipuBank.sol\":3431:3462  return balances[user] >= amount */\n      swap1\n      pop\n        /* \"contracts/KipuBank.sol\":3335:3470  function hasSufficientFunds(address user, uint256 amount) private view returns(bool) {... */\n      swap3\n      swap2\n      pop\n      pop\n      jump\t// out\n        /* \"#utility.yul\":7:84   */\n    tag_80:\n        /* \"#utility.yul\":44:51   */\n      0x00\n        /* \"#utility.yul\":73:78   */\n      dup2\n        /* \"#utility.yul\":62:78   */\n      swap1\n      pop\n        /* \"#utility.yul\":7:84   */\n      swap2\n      swap1\n      pop\n      jump\t// out\n        /* \"#utility.yul\":90:208   */\n    tag_81:\n        /* \"#utility.yul\":177:201   */\n      tag_98\n        /* \"#utility.yul\":195:200   */\n      dup2\n        /* \"#utility.yul\":177:201   */\n      tag_80\n      jump\t// in\n    tag_98:\n        /* \"#utility.yul\":172:175   */\n      dup3\n        /* \"#utility.yul\":165:202   */\n      mstore\n        /* \"#utility.yul\":90:208   */\n      pop\n      pop\n      jump\t// out\n        /* \"#utility.yul\":214:436   */\n    tag_20:\n        /* \"#utility.yul\":307:311   */\n      0x00\n        /* \"#utility.yul\":345:347   */\n      0x20\n        /* \"#utility.yul\":334:343   */\n      dup3\n        /* \"#utility.yul\":330:348   */\n      add\n        /* \"#utility.yul\":322:348   */\n      swap1\n      pop\n        /* \"#utility.yul\":358:429   */\n      tag_100\n        /* \"#utility.yul\":426:427   */\n      0x00\n        /* \"#utility.yul\":415:424   */\n      dup4\n        /* \"#utility.yul\":411:428   */\n      add\n        /* \"#utility.yul\":402:408   */\n      dup5\n        /* \"#utility.yul\":358:429   */\n      tag_81\n      jump\t// in\n    tag_100:\n        /* \"#utility.yul\":214:436   */\n      swap3\n      swap2\n      pop\n      pop\n      jump\t// out\n        /* \"#utility.yul\":523:640   */\n    tag_83:\n        /* \"#utility.yul\":632:633   */\n      0x00\n        /* \"#utility.yul\":629:630   */\n      0x00\n        /* \"#utility.yul\":622:634   */\n      revert\n        /* \"#utility.yul\":769:891   */\n    tag_85:\n        /* \"#utility.yul\":842:866   */\n      tag_105\n        /* \"#utility.yul\":860:865   */\n      dup2\n        /* \"#utility.yul\":842:866   */\n      tag_80\n      jump\t// in\n    tag_105:\n        /* \"#utility.yul\":835:840   */\n      dup2\n        /* \"#utility.yul\":832:867   */\n      eq\n        /* \"#utility.yul\":822:885   */\n      tag_106\n      jumpi\n        /* \"#utility.yul\":881:882   */\n      0x00\n        /* \"#utility.yul\":878:879   */\n      0x00\n        /* \"#utility.yul\":871:883   */\n      revert\n        /* \"#utility.yul\":822:885   */\n    tag_106:\n        /* \"#utility.yul\":769:891   */\n      pop\n      jump\t// out\n        /* \"#utility.yul\":897:1036   */\n    tag_86:\n        /* \"#utility.yul\":943:948   */\n      0x00\n        /* \"#utility.yul\":981:987   */\n      dup2\n        /* \"#utility.yul\":968:988   */\n      calldataload\n        /* \"#utility.yul\":959:988   */\n      swap1\n      pop\n        /* \"#utility.yul\":997:1030   */\n      tag_108\n        /* \"#utility.yul\":1024:1029   */\n      dup2\n        /* \"#utility.yul\":997:1030   */\n      tag_85\n      jump\t// in\n    tag_108:\n        /* \"#utility.yul\":897:1036   */\n      swap3\n      swap2\n      pop\n      pop\n      jump\t// out\n        /* \"#utility.yul\":1042:1371   */\n    tag_24:\n        /* \"#utility.yul\":1101:1107   */\n      0x00\n        /* \"#utility.yul\":1150:1152   */\n      0x20\n        /* \"#utility.yul\":1138:1147   */\n      dup3\n        /* \"#utility.yul\":1129:1136   */\n      dup5\n        /* \"#utility.yul\":1125:1148   */\n      sub\n        /* \"#utility.yul\":1121:1153   */\n      slt\n        /* \"#utility.yul\":1118:1237   */\n      iszero\n      tag_110\n      jumpi\n        /* \"#utility.yul\":1156:1235   */\n      tag_111\n      tag_83\n      jump\t// in\n    tag_111:\n        /* \"#utility.yul\":1118:1237   */\n    tag_110:\n        /* \"#utility.yul\":1276:1277   */\n      0x00\n        /* \"#utility.yul\":1301:1354   */\n      tag_112\n        /* \"#utility.yul\":1346:1353   */\n      dup5\n        /* \"#utility.yul\":1337:1343   */\n      dup3\n        /* \"#utility.yul\":1326:1335   */\n      dup6\n        /* \"#utility.yul\":1322:1344   */\n      add\n        /* \"#utility.yul\":1301:1354   */\n      tag_86\n      jump\t// in\n    tag_112:\n        /* \"#utility.yul\":1291:1354   */\n      swap2\n      pop\n        /* \"#utility.yul\":1247:1364   */\n      pop\n        /* \"#utility.yul\":1042:1371   */\n      swap3\n      swap2\n      pop\n      pop\n      jump\t// out\n        /* \"#utility.yul\":1377:1503   */\n    tag_87:\n        /* \"#utility.yul\":1414:1421   */\n      0x00\n        /* \"#utility.yul\":1454:1496   */\n      0xffffffffffffffffffffffffffffffffffffffff\n        /* \"#utility.yul\":1447:1452   */\n      dup3\n        /* \"#utility.yul\":1443:1497   */\n      and\n        /* \"#utility.yul\":1432:1497   */\n      swap1\n      pop\n        /* \"#utility.yul\":1377:1503   */\n      swap2\n      swap1\n      pop\n      jump\t// out\n        /* \"#utility.yul\":1509:1605   */\n    tag_88:\n        /* \"#utility.yul\":1546:1553   */\n      0x00\n        /* \"#utility.yul\":1575:1599   */\n      tag_115\n        /* \"#utility.yul\":1593:1598   */\n      dup3\n        /* \"#utility.yul\":1575:1599   */\n      tag_87\n      jump\t// in\n    tag_115:\n        /* \"#utility.yul\":1564:1599   */\n      swap1\n      pop\n        /* \"#utility.yul\":1509:1605   */\n      swap2\n      swap1\n      pop\n      jump\t// out\n        /* \"#utility.yul\":1611:1733   */\n    tag_89:\n        /* \"#utility.yul\":1684:1708   */\n      tag_117\n        /* \"#utility.yul\":1702:1707   */\n      dup2\n        /* \"#utility.yul\":1684:1708   */\n      tag_88\n      jump\t// in\n    tag_117:\n        /* \"#utility.yul\":1677:1682   */\n      dup2\n        /* \"#utility.yul\":1674:1709   */\n      eq\n        /* \"#utility.yul\":1664:1727   */\n      tag_118\n      jumpi\n        /* \"#utility.yul\":1723:1724   */\n      0x00\n        /* \"#utility.yul\":1720:1721   */\n      0x00\n        /* \"#utility.yul\":1713:1725   */\n      revert\n        /* \"#utility.yul\":1664:1727   */\n    tag_118:\n        /* \"#utility.yul\":1611:1733   */\n      pop\n      jump\t// out\n        /* \"#utility.yul\":1739:1878   */\n    tag_90:\n        /* \"#utility.yul\":1785:1790   */\n      0x00\n        /* \"#utility.yul\":1823:1829   */\n      dup2\n        /* \"#utility.yul\":1810:1830   */\n      calldataload\n        /* \"#utility.yul\":1801:1830   */\n      swap1\n      pop\n        /* \"#utility.yul\":1839:1872   */\n      tag_120\n        /* \"#utility.yul\":1866:1871   */\n      dup2\n        /* \"#utility.yul\":1839:1872   */\n      tag_89\n      jump\t// in\n    tag_120:\n        /* \"#utility.yul\":1739:1878   */\n      swap3\n      swap2\n      pop\n      pop\n      jump\t// out\n        /* \"#utility.yul\":1884:2213   */\n    tag_47:\n        /* \"#utility.yul\":1943:1949   */\n      0x00\n        /* \"#utility.yul\":1992:1994   */\n      0x20\n        /* \"#utility.yul\":1980:1989   */\n      dup3\n        /* \"#utility.yul\":1971:1978   */\n      dup5\n        /* \"#utility.yul\":1967:1990   */\n      sub\n        /* \"#utility.yul\":1963:1995   */\n      slt\n        /* \"#utility.yul\":1960:2079   */\n      iszero\n      tag_122\n      jumpi\n        /* \"#utility.yul\":1998:2077   */\n      tag_123\n      tag_83\n      jump\t// in\n    tag_123:\n        /* \"#utility.yul\":1960:2079   */\n    tag_122:\n        /* \"#utility.yul\":2118:2119   */\n      0x00\n        /* \"#utility.yul\":2143:2196   */\n      tag_124\n        /* \"#utility.yul\":2188:2195   */\n      dup5\n        /* \"#utility.yul\":2179:2185   */\n      dup3\n        /* \"#utility.yul\":2168:2177   */\n      dup6\n        /* \"#utility.yul\":2164:2186   */\n      add\n        /* \"#utility.yul\":2143:2196   */\n      tag_90\n      jump\t// in\n    tag_124:\n        /* \"#utility.yul\":2133:2196   */\n      swap2\n      pop\n        /* \"#utility.yul\":2089:2206   */\n      pop\n        /* \"#utility.yul\":1884:2213   */\n      swap3\n      swap2\n      pop\n      pop\n      jump\t// out\n        /* \"#utility.yul\":2219:2399   */\n    tag_91:\n        /* \"#utility.yul\":2267:2344   */\n      0x4e487b7100000000000000000000000000000000000000000000000000000000\n        /* \"#utility.yul\":2264:2265   */\n      0x00\n        /* \"#utility.yul\":2257:2345   */\n      mstore\n        /* \"#utility.yul\":2364:2368   */\n      0x11\n        /* \"#utility.yul\":2361:2362   */\n      0x04\n        /* \"#utility.yul\":2354:2369   */\n      mstore\n        /* \"#utility.yul\":2388:2392   */\n      0x24\n        /* \"#utility.yul\":2385:2386   */\n      0x00\n        /* \"#utility.yul\":2378:2393   */\n      revert\n        /* \"#utility.yul\":2405:2599   */\n    tag_57:\n        /* \"#utility.yul\":2445:2449   */\n      0x00\n        /* \"#utility.yul\":2465:2485   */\n      tag_127\n        /* \"#utility.yul\":2483:2484   */\n      dup3\n        /* \"#utility.yul\":2465:2485   */\n      tag_80\n      jump\t// in\n    tag_127:\n        /* \"#utility.yul\":2460:2485   */\n      swap2\n      pop\n        /* \"#utility.yul\":2499:2519   */\n      tag_128\n        /* \"#utility.yul\":2517:2518   */\n      dup4\n        /* \"#utility.yul\":2499:2519   */\n      tag_80\n      jump\t// in\n    tag_128:\n        /* \"#utility.yul\":2494:2519   */\n      swap3\n      pop\n        /* \"#utility.yul\":2543:2544   */\n      dup3\n        /* \"#utility.yul\":2540:2541   */\n      dup3\n        /* \"#utility.yul\":2536:2545   */\n      sub\n        /* \"#utility.yul\":2528:2545   */\n      swap1\n      pop\n        /* \"#utility.yul\":2567:2568   */\n      dup2\n        /* \"#utility.yul\":2561:2565   */\n      dup2\n        /* \"#utility.yul\":2558:2569   */\n      gt\n        /* \"#utility.yul\":2555:2592   */\n      iszero\n      tag_129\n      jumpi\n        /* \"#utility.yul\":2572:2590   */\n      tag_130\n      tag_91\n      jump\t// in\n    tag_130:\n        /* \"#utility.yul\":2555:2592   */\n    tag_129:\n        /* \"#utility.yul\":2405:2599   */\n      swap3\n      swap2\n      pop\n      pop\n      jump\t// out\n        /* \"#utility.yul\":2605:2838   */\n    tag_60:\n        /* \"#utility.yul\":2644:2647   */\n      0x00\n        /* \"#utility.yul\":2667:2691   */\n      tag_132\n        /* \"#utility.yul\":2685:2690   */\n      dup3\n        /* \"#utility.yul\":2667:2691   */\n      tag_80\n      jump\t// in\n    tag_132:\n        /* \"#utility.yul\":2658:2691   */\n      swap2\n      pop\n        /* \"#utility.yul\":2713:2779   */\n      0xffffffffffffffffffffffffffffffffffffffffffffffffffffffffffffffff\n        /* \"#utility.yul\":2706:2711   */\n      dup3\n        /* \"#utility.yul\":2703:2780   */\n      sub\n        /* \"#utility.yul\":2700:2803   */\n      tag_133\n      jumpi\n        /* \"#utility.yul\":2783:2801   */\n      tag_134\n      tag_91\n      jump\t// in\n    tag_134:\n        /* \"#utility.yul\":2700:2803   */\n    tag_133:\n        /* \"#utility.yul\":2830:2831   */\n      0x01\n        /* \"#utility.yul\":2823:2828   */\n      dup3\n        /* \"#utility.yul\":2819:2832   */\n      add\n        /* \"#utility.yul\":2812:2832   */\n      swap1\n      pop\n        /* \"#utility.yul\":2605:2838   */\n      swap2\n      swap1\n      pop\n      jump\t// out\n        /* \"#utility.yul\":2844:2991   */\n    tag_92:\n        /* \"#utility.yul\":2945:2956   */\n      0x00\n        /* \"#utility.yul\":2982:2985   */\n      dup2\n        /* \"#utility.yul\":2967:2985   */\n      swap1\n      pop\n        /* \"#utility.yul\":2844:2991   */\n      swap3\n      swap2\n      pop\n      pop\n      jump\t// out\n        /* \"#utility.yul\":2997:3111   */\n    tag_93:\n      pop\n      jump\t// out\n        /* \"#utility.yul\":3117:3515   */\n    tag_94:\n        /* \"#utility.yul\":3276:3279   */\n      0x00\n        /* \"#utility.yul\":3297:3380   */\n      tag_138\n        /* \"#utility.yul\":3378:3379   */\n      0x00\n        /* \"#utility.yul\":3373:3376   */\n      dup4\n        /* \"#utility.yul\":3297:3380   */\n      tag_92\n      jump\t// in\n    tag_138:\n        /* \"#utility.yul\":3290:3380   */\n      swap2\n      pop\n        /* \"#utility.yul\":3389:3482   */\n      tag_139\n        /* \"#utility.yul\":3478:3481   */\n      dup3\n        /* \"#utility.yul\":3389:3482   */\n      tag_93\n      jump\t// in\n    tag_139:\n        /* \"#utility.yul\":3507:3508   */\n      0x00\n        /* \"#utility.yul\":3502:3505   */\n      dup3\n        /* \"#utility.yul\":3498:3509   */\n      add\n        /* \"#utility.yul\":3491:3509   */\n      swap1\n      pop\n        /* \"#utility.yul\":3117:3515   */\n      swap2\n      swap1\n      pop\n      jump\t// out\n        /* \"#utility.yul\":3521:3900   */\n    tag_63:\n        /* \"#utility.yul\":3705:3708   */\n      0x00\n        /* \"#utility.yul\":3727:3874   */\n      tag_141\n        /* \"#utility.yul\":3870:3873   */\n      dup3\n        /* \"#utility.yul\":3727:3874   */\n      tag_94\n      jump\t// in\n    tag_141:\n        /* \"#utility.yul\":3720:3874   */\n      swap2\n      pop\n        /* \"#utility.yul\":3891:3894   */\n      dup2\n        /* \"#utility.yul\":3884:3894   */\n      swap1\n      pop\n        /* \"#utility.yul\":3521:3900   */\n      swap2\n      swap1\n      pop\n      jump\t// out\n        /* \"#utility.yul\":3906:4097   */\n    tag_70:\n        /* \"#utility.yul\":3946:3949   */\n      0x00\n        /* \"#utility.yul\":3965:3985   */\n      tag_143\n        /* \"#utility.yul\":3983:3984   */\n      dup3\n        /* \"#utility.yul\":3965:3985   */\n      tag_80\n      jump\t// in\n    tag_143:\n        /* \"#utility.yul\":3960:3985   */\n      swap2\n      pop\n        /* \"#utility.yul\":3999:4019   */\n      tag_144\n        /* \"#utility.yul\":4017:4018   */\n      dup4\n        /* \"#utility.yul\":3999:4019   */\n      tag_80\n      jump\t// in\n    tag_144:\n        /* \"#utility.yul\":3994:4019   */\n      swap3\n      pop\n        /* \"#utility.yul\":4042:4043   */\n      dup3\n        /* \"#utility.yul\":4039:4040   */\n      dup3\n        /* \"#utility.yul\":4035:4044   */\n      add\n        /* \"#utility.yul\":4028:4044   */\n      swap1\n      pop\n        /* \"#utility.yul\":4063:4066   */\n      dup1\n        /* \"#utility.yul\":4060:4061   */\n      dup3\n        /* \"#utility.yul\":4057:4067   */\n      gt\n        /* \"#utility.yul\":4054:4090   */\n      iszero\n      tag_145\n      jumpi\n        /* \"#utility.yul\":4070:4088   */\n      tag_146\n      tag_91\n      jump\t// in\n    tag_146:\n        /* \"#utility.yul\":4054:4090   */\n    tag_145:\n        /* \"#utility.yul\":3906:4097   */\n      swap3\n      swap2\n      pop\n      pop\n      jump\t// out\n\n    auxdata: 0xa2646970667358221220f82c086c997a5653e4d6f762465870cd81be78de2e3abca889b164026749735b64736f6c634300081e0033\n}\n",
				"bytecode": {
					"linkReferences": {},
					"object": "60c0604052674563918244f4000060809081525034801561001e575f5ffd5b50604051610a02380380610a0283398181016040528101906100409190610085565b8060a08181525050506100b0565b5f5ffd5b5f819050919050565b61006481610052565b811461006e575f5ffd5b50565b5f8151905061007f8161005b565b92915050565b5f6020828403121561009a5761009961004e565b5b5f6100a784828501610071565b91505092915050565b60805160a0516109236100df5f395f81816104a4015261061301525f8181610229015261028601526109235ff3fe60806040526004361061007e575f3560e01c8063c79f0e4c1161004d578063c79f0e4c1461018d578063d0e30db0146101b7578063ecbea24d146101c1578063f8b2cb4f146101eb576100b5565b80632456a760146100e75780632e1a7d4d1461011157806342b8c41514610139578063acf3c41514610163576100b5565b366100b5576040517f46c79b0600000000000000000000000000000000000000000000000000000000815260040160405180910390fd5b6040517f46c79b0600000000000000000000000000000000000000000000000000000000815260040160405180910390fd5b3480156100f2575f5ffd5b506100fb610227565b60405161010891906106db565b60405180910390f35b34801561011c575f5ffd5b5061013760048036038101906101329190610722565b61024b565b005b348015610144575f5ffd5b5061014d610490565b60405161015a91906106db565b60405180910390f35b34801561016e575f5ffd5b50610177610496565b60405161018491906106db565b60405180910390f35b348015610198575f5ffd5b506101a161049c565b6040516101ae91906106db565b60405180910390f35b6101bf6104a2565b005b3480156101cc575f5ffd5b506101d5610611565b6040516101e291906106db565b60405180910390f35b3480156101f6575f5ffd5b50610211600480360381019061020c91906107a7565b610635565b60405161021e91906106db565b60405180910390f35b7f000000000000000000000000000000000000000000000000000000000000000081565b5f8103610284576040517fdc74d5a600000000000000000000000000000000000000000000000000000000815260040160405180910390fd5b7f00000000000000000000000000000000000000000000000000000000000000008111156102de576040517fd5ce77cd00000000000000000000000000000000000000000000000000000000815260040160405180910390fd5b6102e8338261067a565b61031e576040517f9436d74500000000000000000000000000000000000000000000000000000000815260040160405180910390fd5b805f5f3373ffffffffffffffffffffffffffffffffffffffff1673ffffffffffffffffffffffffffffffffffffffff1681526020019081526020015f205f82825461036991906107ff565b925050819055508060015f82825461038191906107ff565b9250508190555060035f81548092919061039a90610832565b91905055503373ffffffffffffffffffffffffffffffffffffffff167f884edad9ce6fa2440d8a54cc123490eb96d2768479d49ff9c7366125a9424364826040516103e591906106db565b60405180910390a25f3373ffffffffffffffffffffffffffffffffffffffff1682604051610412906108a6565b5f6040518083038185875af1925050503d805f811461044c576040519150601f19603f3d011682016040523d82523d5f602084013e610451565b606091505b505090508061048c576040517f8a6c667700000000000000000000000000000000000000000000000000000000815260040160405180910390fd5b5050565b60015481565b60025481565b60035481565b7f000000000000000000000000000000000000000000000000000000000000000034476104cf91906108ba565b1115610507576040517f495bdf3a00000000000000000000000000000000000000000000000000000000815260040160405180910390fd5b5f3403610540576040517fdc74d5a600000000000000000000000000000000000000000000000000000000815260040160405180910390fd5b345f5f3373ffffffffffffffffffffffffffffffffffffffff1673ffffffffffffffffffffffffffffffffffffffff1681526020019081526020015f205f82825461058b91906108ba565b925050819055503460015f8282546105a391906108ba565b9250508190555060025f8154809291906105bc90610832565b91905055503373ffffffffffffffffffffffffffffffffffffffff167fe1fffcc4923d04b559f4d29a8bfc6cda04eb5b0d3c460751c2402c5c5cc9109c3460405161060791906106db565b60405180910390a2565b7f000000000000000000000000000000000000000000000000000000000000000081565b5f5f5f8373ffffffffffffffffffffffffffffffffffffffff1673ffffffffffffffffffffffffffffffffffffffff1681526020019081526020015f20549050919050565b5f815f5f8573ffffffffffffffffffffffffffffffffffffffff1673ffffffffffffffffffffffffffffffffffffffff1681526020019081526020015f20541015905092915050565b5f819050919050565b6106d5816106c3565b82525050565b5f6020820190506106ee5f8301846106cc565b92915050565b5f5ffd5b610701816106c3565b811461070b575f5ffd5b50565b5f8135905061071c816106f8565b92915050565b5f60208284031215610737576107366106f4565b5b5f6107448482850161070e565b91505092915050565b5f73ffffffffffffffffffffffffffffffffffffffff82169050919050565b5f6107768261074d565b9050919050565b6107868161076c565b8114610790575f5ffd5b50565b5f813590506107a18161077d565b92915050565b5f602082840312156107bc576107bb6106f4565b5b5f6107c984828501610793565b91505092915050565b7f4e487b71000000000000000000000000000000000000000000000000000000005f52601160045260245ffd5b5f610809826106c3565b9150610814836106c3565b925082820390508181111561082c5761082b6107d2565b5b92915050565b5f61083c826106c3565b91507fffffffffffffffffffffffffffffffffffffffffffffffffffffffffffffffff820361086e5761086d6107d2565b5b600182019050919050565b5f81905092915050565b50565b5f6108915f83610879565b915061089c82610883565b5f82019050919050565b5f6108b082610886565b9150819050919050565b5f6108c4826106c3565b91506108cf836106c3565b92508282019050808211156108e7576108e66107d2565b5b9291505056fea2646970667358221220f82c086c997a5653e4d6f762465870cd81be78de2e3abca889b164026749735b64736f6c634300081e0033",
					"opcodes": "PUSH1 0xC0 PUSH1 0x40 MSTORE PUSH8 0x4563918244F40000 PUSH1 0x80 SWAP1 DUP2 MSTORE POP CALLVALUE DUP1 ISZERO PUSH2 0x1E JUMPI PUSH0 PUSH0 REVERT JUMPDEST POP PUSH1 0x40 MLOAD PUSH2 0xA02 CODESIZE SUB DUP1 PUSH2 0xA02 DUP4 CODECOPY DUP2 DUP2 ADD PUSH1 0x40 MSTORE DUP2 ADD SWAP1 PUSH2 0x40 SWAP2 SWAP1 PUSH2 0x85 JUMP JUMPDEST DUP1 PUSH1 0xA0 DUP2 DUP2 MSTORE POP POP POP PUSH2 0xB0 JUMP JUMPDEST PUSH0 PUSH0 REVERT JUMPDEST PUSH0 DUP2 SWAP1 POP SWAP2 SWAP1 POP JUMP JUMPDEST PUSH2 0x64 DUP2 PUSH2 0x52 JUMP JUMPDEST DUP2 EQ PUSH2 0x6E JUMPI PUSH0 PUSH0 REVERT JUMPDEST POP JUMP JUMPDEST PUSH0 DUP2 MLOAD SWAP1 POP PUSH2 0x7F DUP2 PUSH2 0x5B JUMP JUMPDEST SWAP3 SWAP2 POP POP JUMP JUMPDEST PUSH0 PUSH1 0x20 DUP3 DUP5 SUB SLT ISZERO PUSH2 0x9A JUMPI PUSH2 0x99 PUSH2 0x4E JUMP JUMPDEST JUMPDEST PUSH0 PUSH2 0xA7 DUP5 DUP3 DUP6 ADD PUSH2 0x71 JUMP JUMPDEST SWAP2 POP POP SWAP3 SWAP2 POP POP JUMP JUMPDEST PUSH1 0x80 MLOAD PUSH1 0xA0 MLOAD PUSH2 0x923 PUSH2 0xDF PUSH0 CODECOPY PUSH0 DUP2 DUP2 PUSH2 0x4A4 ADD MSTORE PUSH2 0x613 ADD MSTORE PUSH0 DUP2 DUP2 PUSH2 0x229 ADD MSTORE PUSH2 0x286 ADD MSTORE PUSH2 0x923 PUSH0 RETURN INVALID PUSH1 0x80 PUSH1 0x40 MSTORE PUSH1 0x4 CALLDATASIZE LT PUSH2 0x7E JUMPI PUSH0 CALLDATALOAD PUSH1 0xE0 SHR DUP1 PUSH4 0xC79F0E4C GT PUSH2 0x4D JUMPI DUP1 PUSH4 0xC79F0E4C EQ PUSH2 0x18D JUMPI DUP1 PUSH4 0xD0E30DB0 EQ PUSH2 0x1B7 JUMPI DUP1 PUSH4 0xECBEA24D EQ PUSH2 0x1C1 JUMPI DUP1 PUSH4 0xF8B2CB4F EQ PUSH2 0x1EB JUMPI PUSH2 0xB5 JUMP JUMPDEST DUP1 PUSH4 0x2456A760 EQ PUSH2 0xE7 JUMPI DUP1 PUSH4 0x2E1A7D4D EQ PUSH2 0x111 JUMPI DUP1 PUSH4 0x42B8C415 EQ PUSH2 0x139 JUMPI DUP1 PUSH4 0xACF3C415 EQ PUSH2 0x163 JUMPI PUSH2 0xB5 JUMP JUMPDEST CALLDATASIZE PUSH2 0xB5 JUMPI PUSH1 0x40 MLOAD PUSH32 0x46C79B0600000000000000000000000000000000000000000000000000000000 DUP2 MSTORE PUSH1 0x4 ADD PUSH1 0x40 MLOAD DUP1 SWAP2 SUB SWAP1 REVERT JUMPDEST PUSH1 0x40 MLOAD PUSH32 0x46C79B0600000000000000000000000000000000000000000000000000000000 DUP2 MSTORE PUSH1 0x4 ADD PUSH1 0x40 MLOAD DUP1 SWAP2 SUB SWAP1 REVERT JUMPDEST CALLVALUE DUP1 ISZERO PUSH2 0xF2 JUMPI PUSH0 PUSH0 REVERT JUMPDEST POP PUSH2 0xFB PUSH2 0x227 JUMP JUMPDEST PUSH1 0x40 MLOAD PUSH2 0x108 SWAP2 SWAP1 PUSH2 0x6DB JUMP JUMPDEST PUSH1 0x40 MLOAD DUP1 SWAP2 SUB SWAP1 RETURN JUMPDEST CALLVALUE DUP1 ISZERO PUSH2 0x11C JUMPI PUSH0 PUSH0 REVERT JUMPDEST POP PUSH2 0x137 PUSH1 0x4 DUP1 CALLDATASIZE SUB DUP2 ADD SWAP1 PUSH2 0x132 SWAP2 SWAP1 PUSH2 0x722 JUMP JUMPDEST PUSH2 0x24B JUMP JUMPDEST STOP JUMPDEST CALLVALUE DUP1 ISZERO PUSH2 0x144 JUMPI PUSH0 PUSH0 REVERT JUMPDEST POP PUSH2 0x14D PUSH2 0x490 JUMP JUMPDEST PUSH1 0x40 MLOAD PUSH2 0x15A SWAP2 SWAP1 PUSH2 0x6DB JUMP JUMPDEST PUSH1 0x40 MLOAD DUP1 SWAP2 SUB SWAP1 RETURN JUMPDEST CALLVALUE DUP1 ISZERO PUSH2 0x16E JUMPI PUSH0 PUSH0 REVERT JUMPDEST POP PUSH2 0x177 PUSH2 0x496 JUMP JUMPDEST PUSH1 0x40 MLOAD PUSH2 0x184 SWAP2 SWAP1 PUSH2 0x6DB JUMP JUMPDEST PUSH1 0x40 MLOAD DUP1 SWAP2 SUB SWAP1 RETURN JUMPDEST CALLVALUE DUP1 ISZERO PUSH2 0x198 JUMPI PUSH0 PUSH0 REVERT JUMPDEST POP PUSH2 0x1A1 PUSH2 0x49C JUMP JUMPDEST PUSH1 0x40 MLOAD PUSH2 0x1AE SWAP2 SWAP1 PUSH2 0x6DB JUMP JUMPDEST PUSH1 0x40 MLOAD DUP1 SWAP2 SUB SWAP1 RETURN JUMPDEST PUSH2 0x1BF PUSH2 0x4A2 JUMP JUMPDEST STOP JUMPDEST CALLVALUE DUP1 ISZERO PUSH2 0x1CC JUMPI PUSH0 PUSH0 REVERT JUMPDEST POP PUSH2 0x1D5 PUSH2 0x611 JUMP JUMPDEST PUSH1 0x40 MLOAD PUSH2 0x1E2 SWAP2 SWAP1 PUSH2 0x6DB JUMP JUMPDEST PUSH1 0x40 MLOAD DUP1 SWAP2 SUB SWAP1 RETURN JUMPDEST CALLVALUE DUP1 ISZERO PUSH2 0x1F6 JUMPI PUSH0 PUSH0 REVERT JUMPDEST POP PUSH2 0x211 PUSH1 0x4 DUP1 CALLDATASIZE SUB DUP2 ADD SWAP1 PUSH2 0x20C SWAP2 SWAP1 PUSH2 0x7A7 JUMP JUMPDEST PUSH2 0x635 JUMP JUMPDEST PUSH1 0x40 MLOAD PUSH2 0x21E SWAP2 SWAP1 PUSH2 0x6DB JUMP JUMPDEST PUSH1 0x40 MLOAD DUP1 SWAP2 SUB SWAP1 RETURN JUMPDEST PUSH32 0x0 DUP2 JUMP JUMPDEST PUSH0 DUP2 SUB PUSH2 0x284 JUMPI PUSH1 0x40 MLOAD PUSH32 0xDC74D5A600000000000000000000000000000000000000000000000000000000 DUP2 MSTORE PUSH1 0x4 ADD PUSH1 0x40 MLOAD DUP1 SWAP2 SUB SWAP1 REVERT JUMPDEST PUSH32 0x0 DUP2 GT ISZERO PUSH2 0x2DE JUMPI PUSH1 0x40 MLOAD PUSH32 0xD5CE77CD00000000000000000000000000000000000000000000000000000000 DUP2 MSTORE PUSH1 0x4 ADD PUSH1 0x40 MLOAD DUP1 SWAP2 SUB SWAP1 REVERT JUMPDEST PUSH2 0x2E8 CALLER DUP3 PUSH2 0x67A JUMP JUMPDEST PUSH2 0x31E JUMPI PUSH1 0x40 MLOAD PUSH32 0x9436D74500000000000000000000000000000000000000000000000000000000 DUP2 MSTORE PUSH1 0x4 ADD PUSH1 0x40 MLOAD DUP1 SWAP2 SUB SWAP1 REVERT JUMPDEST DUP1 PUSH0 PUSH0 CALLER PUSH20 0xFFFFFFFFFFFFFFFFFFFFFFFFFFFFFFFFFFFFFFFF AND PUSH20 0xFFFFFFFFFFFFFFFFFFFFFFFFFFFFFFFFFFFFFFFF AND DUP2 MSTORE PUSH1 0x20 ADD SWAP1 DUP2 MSTORE PUSH1 0x20 ADD PUSH0 KECCAK256 PUSH0 DUP3 DUP3 SLOAD PUSH2 0x369 SWAP2 SWAP1 PUSH2 0x7FF JUMP JUMPDEST SWAP3 POP POP DUP2 SWAP1 SSTORE POP DUP1 PUSH1 0x1 PUSH0 DUP3 DUP3 SLOAD PUSH2 0x381 SWAP2 SWAP1 PUSH2 0x7FF JUMP JUMPDEST SWAP3 POP POP DUP2 SWAP1 SSTORE POP PUSH1 0x3 PUSH0 DUP2 SLOAD DUP1 SWAP3 SWAP2 SWAP1 PUSH2 0x39A SWAP1 PUSH2 0x832 JUMP JUMPDEST SWAP2 SWAP1 POP SSTORE POP CALLER PUSH20 0xFFFFFFFFFFFFFFFFFFFFFFFFFFFFFFFFFFFFFFFF AND PUSH32 0x884EDAD9CE6FA2440D8A54CC123490EB96D2768479D49FF9C7366125A9424364 DUP3 PUSH1 0x40 MLOAD PUSH2 0x3E5 SWAP2 SWAP1 PUSH2 0x6DB JUMP JUMPDEST PUSH1 0x40 MLOAD DUP1 SWAP2 SUB SWAP1 LOG2 PUSH0 CALLER PUSH20 0xFFFFFFFFFFFFFFFFFFFFFFFFFFFFFFFFFFFFFFFF AND DUP3 PUSH1 0x40 MLOAD PUSH2 0x412 SWAP1 PUSH2 0x8A6 JUMP JUMPDEST PUSH0 PUSH1 0x40 MLOAD DUP1 DUP4 SUB DUP2 DUP6 DUP8 GAS CALL SWAP3 POP POP POP RETURNDATASIZE DUP1 PUSH0 DUP2 EQ PUSH2 0x44C JUMPI PUSH1 0x40 MLOAD SWAP2 POP PUSH1 0x1F NOT PUSH1 0x3F RETURNDATASIZE ADD AND DUP3 ADD PUSH1 0x40 MSTORE RETURNDATASIZE DUP3 MSTORE RETURNDATASIZE PUSH0 PUSH1 0x20 DUP5 ADD RETURNDATACOPY PUSH2 0x451 JUMP JUMPDEST PUSH1 0x60 SWAP2 POP JUMPDEST POP POP SWAP1 POP DUP1 PUSH2 0x48C JUMPI PUSH1 0x40 MLOAD PUSH32 0x8A6C667700000000000000000000000000000000000000000000000000000000 DUP2 MSTORE PUSH1 0x4 ADD PUSH1 0x40 MLOAD DUP1 SWAP2 SUB SWAP1 REVERT JUMPDEST POP POP JUMP JUMPDEST PUSH1 0x1 SLOAD DUP2 JUMP JUMPDEST PUSH1 0x2 SLOAD DUP2 JUMP JUMPDEST PUSH1 0x3 SLOAD DUP2 JUMP JUMPDEST PUSH32 0x0 CALLVALUE SELFBALANCE PUSH2 0x4CF SWAP2 SWAP1 PUSH2 0x8BA JUMP JUMPDEST GT ISZERO PUSH2 0x507 JUMPI PUSH1 0x40 MLOAD PUSH32 0x495BDF3A00000000000000000000000000000000000000000000000000000000 DUP2 MSTORE PUSH1 0x4 ADD PUSH1 0x40 MLOAD DUP1 SWAP2 SUB SWAP1 REVERT JUMPDEST PUSH0 CALLVALUE SUB PUSH2 0x540 JUMPI PUSH1 0x40 MLOAD PUSH32 0xDC74D5A600000000000000000000000000000000000000000000000000000000 DUP2 MSTORE PUSH1 0x4 ADD PUSH1 0x40 MLOAD DUP1 SWAP2 SUB SWAP1 REVERT JUMPDEST CALLVALUE PUSH0 PUSH0 CALLER PUSH20 0xFFFFFFFFFFFFFFFFFFFFFFFFFFFFFFFFFFFFFFFF AND PUSH20 0xFFFFFFFFFFFFFFFFFFFFFFFFFFFFFFFFFFFFFFFF AND DUP2 MSTORE PUSH1 0x20 ADD SWAP1 DUP2 MSTORE PUSH1 0x20 ADD PUSH0 KECCAK256 PUSH0 DUP3 DUP3 SLOAD PUSH2 0x58B SWAP2 SWAP1 PUSH2 0x8BA JUMP JUMPDEST SWAP3 POP POP DUP2 SWAP1 SSTORE POP CALLVALUE PUSH1 0x1 PUSH0 DUP3 DUP3 SLOAD PUSH2 0x5A3 SWAP2 SWAP1 PUSH2 0x8BA JUMP JUMPDEST SWAP3 POP POP DUP2 SWAP1 SSTORE POP PUSH1 0x2 PUSH0 DUP2 SLOAD DUP1 SWAP3 SWAP2 SWAP1 PUSH2 0x5BC SWAP1 PUSH2 0x832 JUMP JUMPDEST SWAP2 SWAP1 POP SSTORE POP CALLER PUSH20 0xFFFFFFFFFFFFFFFFFFFFFFFFFFFFFFFFFFFFFFFF AND PUSH32 0xE1FFFCC4923D04B559F4D29A8BFC6CDA04EB5B0D3C460751C2402C5C5CC9109C CALLVALUE PUSH1 0x40 MLOAD PUSH2 0x607 SWAP2 SWAP1 PUSH2 0x6DB JUMP JUMPDEST PUSH1 0x40 MLOAD DUP1 SWAP2 SUB SWAP1 LOG2 JUMP JUMPDEST PUSH32 0x0 DUP2 JUMP JUMPDEST PUSH0 PUSH0 PUSH0 DUP4 PUSH20 0xFFFFFFFFFFFFFFFFFFFFFFFFFFFFFFFFFFFFFFFF AND PUSH20 0xFFFFFFFFFFFFFFFFFFFFFFFFFFFFFFFFFFFFFFFF AND DUP2 MSTORE PUSH1 0x20 ADD SWAP1 DUP2 MSTORE PUSH1 0x20 ADD PUSH0 KECCAK256 SLOAD SWAP1 POP SWAP2 SWAP1 POP JUMP JUMPDEST PUSH0 DUP2 PUSH0 PUSH0 DUP6 PUSH20 0xFFFFFFFFFFFFFFFFFFFFFFFFFFFFFFFFFFFFFFFF AND PUSH20 0xFFFFFFFFFFFFFFFFFFFFFFFFFFFFFFFFFFFFFFFF AND DUP2 MSTORE PUSH1 0x20 ADD SWAP1 DUP2 MSTORE PUSH1 0x20 ADD PUSH0 KECCAK256 SLOAD LT ISZERO SWAP1 POP SWAP3 SWAP2 POP POP JUMP JUMPDEST PUSH0 DUP2 SWAP1 POP SWAP2 SWAP1 POP JUMP JUMPDEST PUSH2 0x6D5 DUP2 PUSH2 0x6C3 JUMP JUMPDEST DUP3 MSTORE POP POP JUMP JUMPDEST PUSH0 PUSH1 0x20 DUP3 ADD SWAP1 POP PUSH2 0x6EE PUSH0 DUP4 ADD DUP5 PUSH2 0x6CC JUMP JUMPDEST SWAP3 SWAP2 POP POP JUMP JUMPDEST PUSH0 PUSH0 REVERT JUMPDEST PUSH2 0x701 DUP2 PUSH2 0x6C3 JUMP JUMPDEST DUP2 EQ PUSH2 0x70B JUMPI PUSH0 PUSH0 REVERT JUMPDEST POP JUMP JUMPDEST PUSH0 DUP2 CALLDATALOAD SWAP1 POP PUSH2 0x71C DUP2 PUSH2 0x6F8 JUMP JUMPDEST SWAP3 SWAP2 POP POP JUMP JUMPDEST PUSH0 PUSH1 0x20 DUP3 DUP5 SUB SLT ISZERO PUSH2 0x737 JUMPI PUSH2 0x736 PUSH2 0x6F4 JUMP JUMPDEST JUMPDEST PUSH0 PUSH2 0x744 DUP5 DUP3 DUP6 ADD PUSH2 0x70E JUMP JUMPDEST SWAP2 POP POP SWAP3 SWAP2 POP POP JUMP JUMPDEST PUSH0 PUSH20 0xFFFFFFFFFFFFFFFFFFFFFFFFFFFFFFFFFFFFFFFF DUP3 AND SWAP1 POP SWAP2 SWAP1 POP JUMP JUMPDEST PUSH0 PUSH2 0x776 DUP3 PUSH2 0x74D JUMP JUMPDEST SWAP1 POP SWAP2 SWAP1 POP JUMP JUMPDEST PUSH2 0x786 DUP2 PUSH2 0x76C JUMP JUMPDEST DUP2 EQ PUSH2 0x790 JUMPI PUSH0 PUSH0 REVERT JUMPDEST POP JUMP JUMPDEST PUSH0 DUP2 CALLDATALOAD SWAP1 POP PUSH2 0x7A1 DUP2 PUSH2 0x77D JUMP JUMPDEST SWAP3 SWAP2 POP POP JUMP JUMPDEST PUSH0 PUSH1 0x20 DUP3 DUP5 SUB SLT ISZERO PUSH2 0x7BC JUMPI PUSH2 0x7BB PUSH2 0x6F4 JUMP JUMPDEST JUMPDEST PUSH0 PUSH2 0x7C9 DUP5 DUP3 DUP6 ADD PUSH2 0x793 JUMP JUMPDEST SWAP2 POP POP SWAP3 SWAP2 POP POP JUMP JUMPDEST PUSH32 0x4E487B7100000000000000000000000000000000000000000000000000000000 PUSH0 MSTORE PUSH1 0x11 PUSH1 0x4 MSTORE PUSH1 0x24 PUSH0 REVERT JUMPDEST PUSH0 PUSH2 0x809 DUP3 PUSH2 0x6C3 JUMP JUMPDEST SWAP2 POP PUSH2 0x814 DUP4 PUSH2 0x6C3 JUMP JUMPDEST SWAP3 POP DUP3 DUP3 SUB SWAP1 POP DUP2 DUP2 GT ISZERO PUSH2 0x82C JUMPI PUSH2 0x82B PUSH2 0x7D2 JUMP JUMPDEST JUMPDEST SWAP3 SWAP2 POP POP JUMP JUMPDEST PUSH0 PUSH2 0x83C DUP3 PUSH2 0x6C3 JUMP JUMPDEST SWAP2 POP PUSH32 0xFFFFFFFFFFFFFFFFFFFFFFFFFFFFFFFFFFFFFFFFFFFFFFFFFFFFFFFFFFFFFFFF DUP3 SUB PUSH2 0x86E JUMPI PUSH2 0x86D PUSH2 0x7D2 JUMP JUMPDEST JUMPDEST PUSH1 0x1 DUP3 ADD SWAP1 POP SWAP2 SWAP1 POP JUMP JUMPDEST PUSH0 DUP2 SWAP1 POP SWAP3 SWAP2 POP POP JUMP JUMPDEST POP JUMP JUMPDEST PUSH0 PUSH2 0x891 PUSH0 DUP4 PUSH2 0x879 JUMP JUMPDEST SWAP2 POP PUSH2 0x89C DUP3 PUSH2 0x883 JUMP JUMPDEST PUSH0 DUP3 ADD SWAP1 POP SWAP2 SWAP1 POP JUMP JUMPDEST PUSH0 PUSH2 0x8B0 DUP3 PUSH2 0x886 JUMP JUMPDEST SWAP2 POP DUP2 SWAP1 POP SWAP2 SWAP1 POP JUMP JUMPDEST PUSH0 PUSH2 0x8C4 DUP3 PUSH2 0x6C3 JUMP JUMPDEST SWAP2 POP PUSH2 0x8CF DUP4 PUSH2 0x6C3 JUMP JUMPDEST SWAP3 POP DUP3 DUP3 ADD SWAP1 POP DUP1 DUP3 GT ISZERO PUSH2 0x8E7 JUMPI PUSH2 0x8E6 PUSH2 0x7D2 JUMP JUMPDEST JUMPDEST SWAP3 SWAP2 POP POP JUMP INVALID LOG2 PUSH5 0x6970667358 0x22 SLT KECCAK256 EXTCALL 0x2C ADDMOD PUSH13 0x997A5653E4D6F762465870CD81 0xBE PUSH25 0xDE2E3ABCA889B164026749735B64736F6C634300081E003300 "
				},
				"gasEstimates": {
					"creation": {
						"codeDepositCost": "467800",
						"executionCost": "infinite",
						"totalCost": "infinite"
					},
					"external": {
						"": "218",
						"balanceTotal()": "2470",
						"bankCap()": "infinite",
						"deposit()": "infinite",
						"depositosTotales()": "2492",
						"getBalance(address)": "2894",
						"limitWithdrawal()": "infinite",
						"retirosTotales()": "2425",
						"withdraw(uint256)": "infinite"
					},
					"internal": {
						"hasSufficientFunds(address,uint256)": "2231"
					}
				},
				"methodIdentifiers": {
					"balanceTotal()": "42b8c415",
					"bankCap()": "ecbea24d",
					"deposit()": "d0e30db0",
					"depositosTotales()": "acf3c415",
					"getBalance(address)": "f8b2cb4f",
					"limitWithdrawal()": "2456a760",
					"retirosTotales()": "c79f0e4c",
					"withdraw(uint256)": "2e1a7d4d"
				}
			},
			"storageLayout": {
				"storage": [
					{
						"astId": 13,
						"contract": "contracts/KipuBank.sol:KipuBank",
						"label": "balances",
						"offset": 0,
						"slot": "0",
						"type": "t_mapping(t_address,t_uint256)"
					},
					{
						"astId": 16,
						"contract": "contracts/KipuBank.sol:KipuBank",
						"label": "balanceTotal",
						"offset": 0,
						"slot": "1",
						"type": "t_uint256"
					},
					{
						"astId": 19,
						"contract": "contracts/KipuBank.sol:KipuBank",
						"label": "depositosTotales",
						"offset": 0,
						"slot": "2",
						"type": "t_uint256"
					},
					{
						"astId": 22,
						"contract": "contracts/KipuBank.sol:KipuBank",
						"label": "retirosTotales",
						"offset": 0,
						"slot": "3",
						"type": "t_uint256"
					}
				],
				"types": {
					"t_address": {
						"encoding": "inplace",
						"label": "address",
						"numberOfBytes": "20"
					},
					"t_mapping(t_address,t_uint256)": {
						"encoding": "mapping",
						"key": "t_address",
						"label": "mapping(address => uint256)",
						"numberOfBytes": "32",
						"value": "t_uint256"
					},
					"t_uint256": {
						"encoding": "inplace",
						"label": "uint256",
						"numberOfBytes": "32"
					}
				}
			},
			"userdoc": {
				"errors": {
					"AccionNoPermitida()": [
						{
							"notice": "Error que registra cuando se hace un receive o fallback"
						}
					],
					"FondosInsuficientes()": [
						{
							"notice": "Error que se registra cuando no hay fondos suficientes para retirar"
						}
					],
					"LimiteDepositoExcedido()": [
						{
							"notice": "Error que registra cuando un usuario deposita mas del limite establecido en el contrato"
						}
					],
					"LimiteRetiroExcedido()": [
						{
							"notice": "Error que registra cuando un usuario hace un retiro que excede el limite establecido"
						}
					],
					"TransferenciaFallida()": [
						{
							"notice": "Error que registra cuando la transferencia ha fallado"
						}
					],
					"ValorCero()": [
						{
							"notice": "Error cuando el usuario quiere depositar / registrar un monto de 0 ETH"
						}
					]
				},
				"kind": "user",
				"methods": {
					"balanceTotal()": {
						"notice": "balanceTotal Contador del balance total en kipu bank"
					},
					"bankCap()": {
						"notice": "bankCap Define el limite de saldo en depositos en el banco"
					},
					"deposit()": {
						"notice": "Depositar fondos en la boveda"
					},
					"depositosTotales()": {
						"notice": "depositosTotales Contador para ver cuantos depositos se han realizado"
					},
					"getBalance(address)": {
						"notice": "Permite ver el balance de un usuario"
					},
					"limitWithdrawal()": {
						"notice": "limitWithdrawal Define el limite de saldo en Retiros (ETHER)"
					},
					"retirosTotales()": {
						"notice": "retirosTotales Contador para ver cuantos retiros se han realizado"
					},
					"withdraw(uint256)": {
						"notice": "Retirar un monto de la boveda"
					}
				},
				"version": 1
			}
		}
	}
}